:0400000080318228A1
:100008007E1480310B1D80280B1120002108F1007F
:100018002008F000A00A0319A10A013071028A30F1
:1000280003197002031C3328A001A1010130F0005C
:100038007008FA077908031D332865307A02031C13
:100048002D286E307A0203182D280130F000700830
:10005800A2006E307A02031C3328A201FA01013093
:10006800F0007008F8076F0878020318F80178089C
:10007800233E86008701010A031D4B28FF3021001B
:100088008C00FF308E0022008C018E0180287808B9
:10009800233E860087010108F0000130F035FF3E5D
:1000A800031D52287035F1007108F2007208803E75
:1000B800840081300318013E8500000821008C006F
:1000C8007208813E840081300318013E85000008D3
:1000D8008E007208823E840081300318013E85003C
:1000E800000822008C007208833E840081300318C7
:1000F800013E850000088E007E10090080318428AA
:1001080032308400863085001200EB001200EC00CB
:100118001200ED001200EE001200EF00F801F901E4
:10012800FA012030840000308500303086312C26DA
:100138007E1020008231342AE2010430DF005F089B
:10014800EF00FF30F3000030F4002D30F5000030F0
:10015800F60023308531FB2580310130DF005F0850
:10016800E20702306206031DD928E201230A031DB3
:10017800C2282C30DF005F08A300D928240A031DF9
:10018800CA282C30DF005F08A400D928250A031DDF
:10019800D2282C30DF005F08A500D928260A031DC5
:1001A800D9282C30DF005F08A60096308631162645
:1001B8008031003A0319E4280130DF005F08A2000B
:1001C800E3016F08630203187C296308233E860055
:1001D8008701010A031977296308233E86008701EE
:1001E8002C300106031DFF2885316325803158080E
:1001F8000339283E70296308233E8600870128308A
:100208000106031D15298531632580310330580502
:10021800DF0000305905E00043305F078400863076
:1002280056296308233E8600870129300106031DED
:100238002B2985316325803103305805DF000030D4
:100248005905E0003F305F0784008630562963086F
:10025800233E860087012A300106031D4129853186
:100268006325803103305805DF0000305905E00070
:100278003B305F078400863056296308233E86009A
:1002880087012B300106031D6029853163258031E4
:1002980003305805DF0000305905E00037305F07AC
:1002A80084008630603D85000008E1006308233E35
:1002B80086008701610876296308233E8600870146
:1002C80008300102031C6F296308233E860087015A
:1002D800083081027729FF30DF006308233E86005B
:1002E80087015F0881000130DF005F08E307E52828
:1002F8002208031D0800B128CF34FF34203400340D
:10030800CF34FF3410340034DF34FE34203400346A
:10031800DF34FE3400340134DF34F7342034003461
:10032800DF34F73400340834DF34EF342034003459
:10033800DF34EF3400341034FF34CF340034203449
:10034800FF34CF3400341034DF34DF342034003449
:10035800DF34DF3400342034DF34FD34203400341B
:10036800DF34FD3400340234DF34FB34203400340D
:10037800DF34FB3400340434FF34DB3400342034FD
:10038800FF34DB3400340434EF34DF3400342034F9
:10039800EF34DF3410340034FF34DE3400342034DA
:1003A800FF34DE3400340134FF34D73400342034D1
:1003B800FF34D73400340834FF34FC3400340234BA
:1003C800FF34FC3400340134FF34F5340034023493
:1003D800FF34F53400340834FF34ED34003402348B
:1003E800FF34ED3400341034FF34DD34003420346D
:1003F800FF34DD3400340234FF34F3340034043481
:10040800FF34F33400340834FF34EB34003404345C
:10041800FF34EB3400341034FF34F9340034023440
:10042800FF34F93400340434EF34FD34003402343A
:10043800EF34FD3410340034EF34F7341034003422
:10044800EF34F73400340834EF34EF341034003428
:10045800EF34EF3400341034EF34FE340034013418
:10046800F030210099008B0191019201930127003E
:10047800920191019801970123008C018E010430AB
:1004880024008C008E01FF3021008C00FF308E008C
:10049800023095008B168B17FF30F3000030F40004
:1004A8002D30F5000030F60023308531FB258231F0
:1004B8007908031D7903031D672A83316D2382316F
:1004C8002208031D642A790803196E2A0230790666
:1004D800031D752A00308331E12382312208031D70
:1004E800722A790803197C2A03307906031D822AA7
:1004F8008031A02082312208031D7F2A7908031940
:10050800892A04307906031D8F2A84314A248231CE
:100518002208031D8C2A79080319962A05307906C2
:10052800031D9D2A01308331E12382312208031DF6
:100538009A2A79080319A42A06307906031DAA2ADB
:100548008231D32282312208031DA72A7908031990
:10055800B12A07307906031DB72A85319D258231D6
:100568002208031DB42A79080319BE2A083079061F
:10057800031DC52A02308331E12382312208031D7D
:10058800C22A79080319CC2A09307906031D5C2A86
:10059800853122258231220803195C2ACF2A0130AD
:1005A800E5006508EF000A306F0203181F2BE6010B
:1005B800FF30F3000030F4002D30F5000030F60075
:1005C80023308531FB258231E7016F086702031864
:1005D800082B2D30DF000030E000853163258231A3
:1005E8005908E2005808E1008431DD2482315F08AF
:1005F800E5006708233E8600870165088100013011
:10060800E5006508E707E92AC830863116268231F1
:10061800003A031D08000130E5006508E6070230CE
:100628006602031CDC2A0130E5006508EF070A3082
:100638006F02031CDB2A0930E5006508EF00023071
:100648006F02031C692BE801FF30F3000030F4004F
:100658002D30F5000030F60023308531FB2582313E
:10066800E9016F0869020318542B2D30DF000030B0
:10067800E0008531632582315908E2005808E1001D
:100688008431DD2482315F08E5006908233E860055
:100698008701650881000130E5006508E907352B09
:1006A800C830863116268231003A031D0800013011
:1006B800E5006508E80702306802031C282B0130B2
:1006C800EF0202306F020318272B2208031D0800CF
:1006D800D32AE801E80AFF30F3000030F4002D3097
:1006E800F5000030F60023308531FB2583310130D9
:1006F800E5006508EF002C30E5006508A3002B3005
:10070800E5006508A4002A30E5006508A500293041
:10071800E5006508A6002830E5006508A700E9019E
:10072800EA018531632583315808E5005908E60058
:100738007F306505E70079306702031CB32B28304A
:10074800DF000030E0008531632583315908E2007D
:100758005808E1008431DD2483315F08B42BFF3071
:10076800E5006508A8000530863116268331003A71
:100778000319C22B0130E5006508A2000130E90722
:100788000030EA3D00306A02073003196902031C91
:10079800952B6808E5006508EF071E306F06031DF6
:1007A800D72BE801E80305306F06031DDD2BE801B0
:1007B800E80A2208031D0800932BDB000830D70045
:1007C8005708EF005B080319ED2B02305B06031D89
:1007D800082CD801D201D20A5808843195248331D3
:1007E800C830863116268331003A0319002C0130AF
:1007F800D7005708A200082C0130D7005708D8079F
:1008080007305802031CEE2B5B03031D272C063010
:10081800D7005708D900D201D20A59088431952443
:100828008331C830863116268331003A0319212CCA
:100838000130D7005708A200272C0130D902073011
:100848005902031C0F2C02305B06031D462C053091
:10085800D7005708DA00D201D20A5A088431952401
:100868008331C830863116268331003A0319412C6A
:100878000130D7005708A200462C0130DA025A0886
:10088800031D2F2C2208031D0800E62BFF30F30060
:100898000030F4002D30F5000030F60023308531AB
:1008A800FB2584312D30D2005208EF00D4015408C2
:1008B800D2005408233E8600870152088100323056
:1008C800863116268431003A031D08000130D20013
:1008D8005208D4072D305402031C5B2C3230863169
:1008E80016268431003A031D0800D301FF30D200D8
:1008F8005308233E86008701520881003230863132
:1009080016268431003A031D08000130D20052082F
:10091800D3072D305302031C7A2C2208031D08002C
:100928005A2CD50052080319A52CFF30F3000030CB
:10093800F4002D30F5000030F60023308531FB251A
:100948008431053055020318C32CD6015508D3004D
:100958000230D335FF3E031DAD2C53355607D40066
:100968005608233E86008701540881000130D300D1
:100978005308D6070830560203180800AA2C053079
:100988005506031DD82C2830D3005308A30029305E
:10099800D3005308A4002A30D3005308A5002B30F5
:1009A800D3005308A60008002C30D3005308A30036
:1009B8000800E401E21FE72CE109E209E10A031952
:1009C800E20AE401E40AE01FEE2CDF09E009DF0A8D
:1009D8000319E00A5F0860040319152DE301E30A0F
:1009E800E01B002D0130DF35E00D890BF72C0130BD
:1009F800F7007708E307F42C60086202031D062D50
:100A08005F086102031C0C2D5F08E1026008E23BED
:100A18000130E036DF0C890B0D2D0130E302031D98
:100A2800002D640803191D2DE109E209E10A0319E3
:100A3800E20A6208E0006108DF000800F6017608B3
:100A4800F5007608233E860087017508810001308D
:100A5800F5007508F6072D307602031C232D0130AA
:100A6800F5007508EF002D306F0203184A2D32305B
:100A7800863116268531003A031D08000130F5003D
:100A88007508EF072D306F02031C3B2D2D30F50044
:100A98007508EF0002306F02031C5F2D323086317B
:100AA80016268531003A031D08000130EF02023096
:100AB8006F020318522D2208031D0800332D6E08FB
:100AC800D3006D08D2006C08D1006B08D00041300B
:100AD800D700C630D6004E30D5006D30D4008531F1
:100AE800CC2585315308EE005208ED005108EC0082
:100AF8005008EB003930EB073030EC3D0030ED3D6D
:100B08000030EE3D6B08DA006C08DB006D08DC0095
:100B18006E08DD001030DE00DD37DC0CDB0CDA0C93
:100B2800DE0B902DFF305A05D8007F305B05D900C9
:100B380008000830E5006508EF00E6016F08660266
:100B48000318C12D2D30DF000030E000853163250A
:100B580085315908E2005808E1008431DD248531E7
:100B68005F08E5006608233E860087016508810066
:100B78000130E5006508E607A22D0130863116260A
:100B88008531003A031D08002208031D0800A12D25
:100B98000030F6000030F5000030F4000030F300BB
:100BA800501CDE2D5408F3075508F43D5608F53D52
:100BB8005708F63D0130D435D50DD60DD70D890B24
:100BC800DF2D0130D336D20CD10CD00C890BE62D99
:100BD8005308520451045004031DD42D7608D30041
:100BE8007508D2007408D1007308D00008002000EE
:100BF800D1005108F7007708D0000130F502003025
:100C0800F63B750A0319760A031908007308F700FA
:100C1800500886008701770881000130F7007708BF
:100C2800D007012EF4000130F402740A03192A2EA9
:100C38000B30F3006230890B1F2EF30B1F2E00328E
:100C4800200022080319172E013008000030080080
:100C5800640080010131890B2D2E003401340034E9
:100C68000034003401342634273427342034243423
:100C780025342534263422342334233424342034B0
:060C880021342134223466
:020000040001F9
:04000E00C409FF3FE3
:00000001FF
